{
  "_format": "hh-sol-artifact-1",
  "contractName": "PriceFeed",
  "sourceName": "contracts/PriceFeed.sol",
  "abi": [
    {
      "inputs": [],
      "stateMutability": "nonpayable",
      "type": "constructor"
    },
    {
      "inputs": [
        {
          "internalType": "address",
          "name": "owner",
          "type": "address"
        }
      ],
      "name": "OwnableInvalidOwner",
      "type": "error"
    },
    {
      "inputs": [
        {
          "internalType": "address",
          "name": "account",
          "type": "address"
        }
      ],
      "name": "OwnableUnauthorizedAccount",
      "type": "error"
    },
    {
      "anonymous": false,
      "inputs": [
        {
          "indexed": false,
          "internalType": "uint256",
          "name": "feedid",
          "type": "uint256"
        },
        {
          "indexed": false,
          "internalType": "address",
          "name": "newAddress",
          "type": "address"
        },
        {
          "indexed": false,
          "internalType": "string",
          "name": "description",
          "type": "string"
        }
      ],
      "name": "FeedAddressUpdated",
      "type": "event"
    },
    {
      "anonymous": false,
      "inputs": [
        {
          "indexed": true,
          "internalType": "address",
          "name": "previousOwner",
          "type": "address"
        },
        {
          "indexed": true,
          "internalType": "address",
          "name": "newOwner",
          "type": "address"
        }
      ],
      "name": "OwnershipTransferred",
      "type": "event"
    },
    {
      "anonymous": false,
      "inputs": [
        {
          "indexed": false,
          "internalType": "string",
          "name": "description",
          "type": "string"
        },
        {
          "indexed": false,
          "internalType": "int256",
          "name": "price",
          "type": "int256"
        }
      ],
      "name": "PriceRequested",
      "type": "event"
    },
    {
      "inputs": [
        {
          "internalType": "uint256",
          "name": "",
          "type": "uint256"
        }
      ],
      "name": "feeds",
      "outputs": [
        {
          "internalType": "contract AggregatorV3Interface",
          "name": "aggregator",
          "type": "address"
        },
        {
          "internalType": "string",
          "name": "description",
          "type": "string"
        }
      ],
      "stateMutability": "view",
      "type": "function"
    },
    {
      "inputs": [
        {
          "internalType": "uint256",
          "name": "feedid",
          "type": "uint256"
        }
      ],
      "name": "getLatestFetchedPrice",
      "outputs": [
        {
          "internalType": "int256",
          "name": "",
          "type": "int256"
        }
      ],
      "stateMutability": "view",
      "type": "function"
    },
    {
      "inputs": [
        {
          "internalType": "uint256",
          "name": "",
          "type": "uint256"
        }
      ],
      "name": "lastFetchedPrice",
      "outputs": [
        {
          "internalType": "int256",
          "name": "",
          "type": "int256"
        }
      ],
      "stateMutability": "view",
      "type": "function"
    },
    {
      "inputs": [],
      "name": "owner",
      "outputs": [
        {
          "internalType": "address",
          "name": "",
          "type": "address"
        }
      ],
      "stateMutability": "view",
      "type": "function"
    },
    {
      "inputs": [],
      "name": "renounceOwnership",
      "outputs": [],
      "stateMutability": "nonpayable",
      "type": "function"
    },
    {
      "inputs": [
        {
          "internalType": "address",
          "name": "newOwner",
          "type": "address"
        }
      ],
      "name": "transferOwnership",
      "outputs": [],
      "stateMutability": "nonpayable",
      "type": "function"
    },
    {
      "inputs": [
        {
          "internalType": "uint256",
          "name": "feedid",
          "type": "uint256"
        },
        {
          "internalType": "address",
          "name": "newAddress",
          "type": "address"
        }
      ],
      "name": "updateFeedPrice",
      "outputs": [],
      "stateMutability": "nonpayable",
      "type": "function"
    },
    {
      "inputs": [
        {
          "internalType": "uint256",
          "name": "feedid",
          "type": "uint256"
        }
      ],
      "name": "updatePrice",
      "outputs": [],
      "stateMutability": "nonpayable",
      "type": "function"
    }
  ],
  "bytecode": "0x60806040523480156200001157600080fd5b5033600073ffffffffffffffffffffffffffffffffffffffff168173ffffffffffffffffffffffffffffffffffffffff1603620000885760006040517f1e4fbdf70000000000000000000000000000000000000000000000000000000081526004016200007f919062000551565b60405180910390fd5b62000099816200044860201b60201c565b5060405180604001604052807331cf013a08c6ac228c94551d535d5bafe19c602a73ffffffffffffffffffffffffffffffffffffffff1681526020016040518060400160405280600781526020017f4254432f55534400000000000000000000000000000000000000000000000000815250815250600160006001815260200190815260200160002060008201518160000160006101000a81548173ffffffffffffffffffffffffffffffffffffffff021916908373ffffffffffffffffffffffffffffffffffffffff1602179055506020820151816001019081620001809190620007e8565b5090505060405180604001604052807386d67c3d38d2bcee722e601025c25a575021c6ea73ffffffffffffffffffffffffffffffffffffffff1681526020016040518060400160405280600781526020017f4554482f55534400000000000000000000000000000000000000000000000000815250815250600160006002815260200190815260200160002060008201518160000160006101000a81548173ffffffffffffffffffffffffffffffffffffffff021916908373ffffffffffffffffffffffffffffffffffffffff16021790555060208201518160010190816200026a9190620007e8565b5090505060405180604001604052807334c4c526902d88a3aa98db8a9b802603eb1e347073ffffffffffffffffffffffffffffffffffffffff1681526020016040518060400160405280600881526020017f4c494e4b2f555344000000000000000000000000000000000000000000000000815250815250600160006003815260200190815260200160002060008201518160000160006101000a81548173ffffffffffffffffffffffffffffffffffffffff021916908373ffffffffffffffffffffffffffffffffffffffff1602179055506020820151816001019081620003549190620007e8565b50905050604051806040016040528073378e78509a907b1ec5c24d9f0243bd39f7a7b00773ffffffffffffffffffffffffffffffffffffffff1681526020016040518060400160405280600781526020017f4254432f45544800000000000000000000000000000000000000000000000000815250815250600160006004815260200190815260200160002060008201518160000160006101000a81548173ffffffffffffffffffffffffffffffffffffffff021916908373ffffffffffffffffffffffffffffffffffffffff16021790555060208201518160010190816200043e9190620007e8565b50905050620008cf565b60008060009054906101000a900473ffffffffffffffffffffffffffffffffffffffff169050816000806101000a81548173ffffffffffffffffffffffffffffffffffffffff021916908373ffffffffffffffffffffffffffffffffffffffff1602179055508173ffffffffffffffffffffffffffffffffffffffff168173ffffffffffffffffffffffffffffffffffffffff167f8be0079c531659141344cd1fd0a4f28419497f9722a3daafe3b4186f6b6457e060405160405180910390a35050565b600073ffffffffffffffffffffffffffffffffffffffff82169050919050565b600062000539826200050c565b9050919050565b6200054b816200052c565b82525050565b600060208201905062000568600083018462000540565b92915050565b600081519050919050565b7f4e487b7100000000000000000000000000000000000000000000000000000000600052604160045260246000fd5b7f4e487b7100000000000000000000000000000000000000000000000000000000600052602260045260246000fd5b60006002820490506001821680620005f057607f821691505b602082108103620006065762000605620005a8565b5b50919050565b60008190508160005260206000209050919050565b60006020601f8301049050919050565b600082821b905092915050565b600060088302620006707fffffffffffffffffffffffffffffffffffffffffffffffffffffffffffffffff8262000631565b6200067c868362000631565b95508019841693508086168417925050509392505050565b6000819050919050565b6000819050919050565b6000620006c9620006c3620006bd8462000694565b6200069e565b62000694565b9050919050565b6000819050919050565b620006e583620006a8565b620006fd620006f482620006d0565b8484546200063e565b825550505050565b600090565b6200071462000705565b62000721818484620006da565b505050565b5b8181101562000749576200073d6000826200070a565b60018101905062000727565b5050565b601f821115620007985762000762816200060c565b6200076d8462000621565b810160208510156200077d578190505b620007956200078c8562000621565b83018262000726565b50505b505050565b600082821c905092915050565b6000620007bd600019846008026200079d565b1980831691505092915050565b6000620007d88383620007aa565b9150826002028217905092915050565b620007f3826200056e565b67ffffffffffffffff8111156200080f576200080e62000579565b5b6200081b8254620005d7565b620008288282856200074d565b600060209050601f8311600181146200086057600084156200084b578287015190505b620008578582620007ca565b865550620008c7565b601f19841662000870866200060c565b60005b828110156200089a5784890151825560018201915060208501945060208101905062000873565b86831015620008ba5784890151620008b6601f891682620007aa565b8355505b6001600288020188555050505b505050505050565b610f4380620008df6000396000f3fe608060405234801561001057600080fd5b50600436106100885760003560e01c80638da5cb5b1161005b5780638da5cb5b14610114578063c0351f5c14610132578063c427089914610162578063f2fde38b1461017e57610088565b80634a5479f31461008d578063676eaf24146100be578063715018a6146100ee5780638d6cc56d146100f8575b600080fd5b6100a760048036038101906100a2919061084e565b61019a565b6040516100b592919061098a565b60405180910390f35b6100d860048036038101906100d3919061084e565b610266565b6040516100e591906109d3565b60405180910390f35b6100f66102d8565b005b610112600480360381019061010d919061084e565b6102ec565b005b61011c61048a565b6040516101299190610a0f565b60405180910390f35b61014c6004803603810190610147919061084e565b6104b3565b60405161015991906109d3565b60405180910390f35b61017c60048036038101906101779190610a56565b6104cb565b005b61019860048036038101906101939190610a96565b61063a565b005b60016020528060005260406000206000915090508060000160009054906101000a900473ffffffffffffffffffffffffffffffffffffffff16908060010180546101e390610af2565b80601f016020809104026020016040519081016040528092919081815260200182805461020f90610af2565b801561025c5780601f106102315761010080835404028352916020019161025c565b820191906000526020600020905b81548152906001019060200180831161023f57829003601f168201915b5050505050905082565b6000806002600084815260200190815260200160002054036102bd576040517f08c379a00000000000000000000000000000000000000000000000000000000081526004016102b490610b95565b60405180910390fd5b60026000838152602001908152602001600020549050919050565b6102e06106c0565b6102ea6000610747565b565b6000600160008381526020019081526020016000209050600073ffffffffffffffffffffffffffffffffffffffff168160000160009054906101000a900473ffffffffffffffffffffffffffffffffffffffff1673ffffffffffffffffffffffffffffffffffffffff1603610396576040517f08c379a000000000000000000000000000000000000000000000000000000000815260040161038d90610c01565b60405180910390fd5b60008160000160009054906101000a900473ffffffffffffffffffffffffffffffffffffffff1673ffffffffffffffffffffffffffffffffffffffff1663feaf968c6040518163ffffffff1660e01b815260040160a060405180830381865afa158015610407573d6000803e3d6000fd5b505050506040513d601f19601f8201168201806040525081019061042b9190610ca4565b5050509150508060026000858152602001908152602001600020819055507f258bec2dd17c2c58a631f67d75e4a7703ba5c551ba9428e15fd9b7814972a7a9826001018260405161047d929190610db8565b60405180910390a1505050565b60008060009054906101000a900473ffffffffffffffffffffffffffffffffffffffff16905090565b60026020528060005260406000206000915090505481565b6104d36106c0565b600073ffffffffffffffffffffffffffffffffffffffff168173ffffffffffffffffffffffffffffffffffffffff1603610542576040517f08c379a000000000000000000000000000000000000000000000000000000000815260040161053990610e34565b60405180910390fd5b6000821180156105525750600582105b610591576040517f08c379a000000000000000000000000000000000000000000000000000000000815260040161058890610ea0565b60405180910390fd5b806001600084815260200190815260200160002060000160006101000a81548173ffffffffffffffffffffffffffffffffffffffff021916908373ffffffffffffffffffffffffffffffffffffffff1602179055507f776d4e4061bc9d2460fc798429abcb89b43f7c5d6c2b36b34951e38af127bbc282826001600086815260200190815260200160002060010160405161062e93929190610ecf565b60405180910390a15050565b6106426106c0565b600073ffffffffffffffffffffffffffffffffffffffff168173ffffffffffffffffffffffffffffffffffffffff16036106b45760006040517f1e4fbdf70000000000000000000000000000000000000000000000000000000081526004016106ab9190610a0f565b60405180910390fd5b6106bd81610747565b50565b6106c861080b565b73ffffffffffffffffffffffffffffffffffffffff166106e661048a565b73ffffffffffffffffffffffffffffffffffffffff16146107455761070961080b565b6040517f118cdaa700000000000000000000000000000000000000000000000000000000815260040161073c9190610a0f565b60405180910390fd5b565b60008060009054906101000a900473ffffffffffffffffffffffffffffffffffffffff169050816000806101000a81548173ffffffffffffffffffffffffffffffffffffffff021916908373ffffffffffffffffffffffffffffffffffffffff1602179055508173ffffffffffffffffffffffffffffffffffffffff168173ffffffffffffffffffffffffffffffffffffffff167f8be0079c531659141344cd1fd0a4f28419497f9722a3daafe3b4186f6b6457e060405160405180910390a35050565b600033905090565b600080fd5b6000819050919050565b61082b81610818565b811461083657600080fd5b50565b60008135905061084881610822565b92915050565b60006020828403121561086457610863610813565b5b600061087284828501610839565b91505092915050565b600073ffffffffffffffffffffffffffffffffffffffff82169050919050565b6000819050919050565b60006108c06108bb6108b68461087b565b61089b565b61087b565b9050919050565b60006108d2826108a5565b9050919050565b60006108e4826108c7565b9050919050565b6108f4816108d9565b82525050565b600081519050919050565b600082825260208201905092915050565b60005b83811015610934578082015181840152602081019050610919565b60008484015250505050565b6000601f19601f8301169050919050565b600061095c826108fa565b6109668185610905565b9350610976818560208601610916565b61097f81610940565b840191505092915050565b600060408201905061099f60008301856108eb565b81810360208301526109b18184610951565b90509392505050565b6000819050919050565b6109cd816109ba565b82525050565b60006020820190506109e860008301846109c4565b92915050565b60006109f98261087b565b9050919050565b610a09816109ee565b82525050565b6000602082019050610a246000830184610a00565b92915050565b610a33816109ee565b8114610a3e57600080fd5b50565b600081359050610a5081610a2a565b92915050565b60008060408385031215610a6d57610a6c610813565b5b6000610a7b85828601610839565b9250506020610a8c85828601610a41565b9150509250929050565b600060208284031215610aac57610aab610813565b5b6000610aba84828501610a41565b91505092915050565b7f4e487b7100000000000000000000000000000000000000000000000000000000600052602260045260246000fd5b60006002820490506001821680610b0a57607f821691505b602082108103610b1d57610b1c610ac3565b5b50919050565b7f4c617465737420707269636520636f6e76657273696f6e20686173206e6f742060008201527f6265656e207265747269657665642e2000000000000000000000000000000000602082015250565b6000610b7f603083610905565b9150610b8a82610b23565b604082019050919050565b60006020820190508181036000830152610bae81610b72565b9050919050565b7f436f6e74726163742061646472657373206e6f7420666f756e642e0000000000600082015250565b6000610beb601b83610905565b9150610bf682610bb5565b602082019050919050565b60006020820190508181036000830152610c1a81610bde565b9050919050565b600069ffffffffffffffffffff82169050919050565b610c4081610c21565b8114610c4b57600080fd5b50565b600081519050610c5d81610c37565b92915050565b610c6c816109ba565b8114610c7757600080fd5b50565b600081519050610c8981610c63565b92915050565b600081519050610c9e81610822565b92915050565b600080600080600060a08688031215610cc057610cbf610813565b5b6000610cce88828901610c4e565b9550506020610cdf88828901610c7a565b9450506040610cf088828901610c8f565b9350506060610d0188828901610c8f565b9250506080610d1288828901610c4e565b9150509295509295909350565b60008190508160005260206000209050919050565b60008154610d4181610af2565b610d4b8186610905565b94506001821660008114610d665760018114610d7c57610daf565b60ff198316865281151560200286019350610daf565b610d8585610d1f565b60005b83811015610da757815481890152600182019150602081019050610d88565b808801955050505b50505092915050565b60006040820190508181036000830152610dd28185610d34565b9050610de160208301846109c4565b9392505050565b7f55706461746564206164647265737320697320756e646566696e65642e200000600082015250565b6000610e1e601e83610905565b9150610e2982610de8565b602082019050919050565b60006020820190508181036000830152610e4d81610e11565b9050919050565b7f496e76616c696420666565642049442e20000000000000000000000000000000600082015250565b6000610e8a601183610905565b9150610e9582610e54565b602082019050919050565b60006020820190508181036000830152610eb981610e7d565b9050919050565b610ec981610818565b82525050565b6000606082019050610ee46000830186610ec0565b610ef16020830185610a00565b8181036040830152610f038184610d34565b905094935050505056fea2646970667358221220a306be9741e54671fc503029fb37be5848f03d0822059eb3336fad518ecfbf9b64736f6c63430008140033",
  "linkReferences": {},
  "deployedLinkReferences": {}
}